{
  "transactions": [
    {
      "hash": null,
      "transactionType": "CALL",
      "contractName": null,
      "contractAddress": "0x68793ea49297eb75dfb4610b68e076d2a5c7646c",
      "function": "drip(address)",
      "arguments": [
        "0xA6c8D1c55951e8AC44a0EaA959Be5Fd21cc07531"
      ],
      "transaction": {
        "from": "0x8768c6fb71815b2e8ab6dd31b67a926781ac8f1a",
        "to": "0x68793ea49297eb75dfb4610b68e076d2a5c7646c",
        "gas": "0x1dfef",
        "value": "0x0",
        "input": "0x67a5cd06000000000000000000000000a6c8d1c55951e8ac44a0eaa959be5fd21cc07531",
        "nonce": "0x0",
        "chainId": "0xaa36a7",
        "accessList": null,
        "type": null
      },
      "additionalContracts": [],
      "isFixedGasLimit": false
    }
  ],
  "receipts": [],
  "libraries": [],
  "pending": [],
  "returns": {},
  "timestamp": 1716919365,
  "chain": 11155111,
  "commit": "b1d322f"
}