{
  "transactions": [
    {
      "hash": "0x572859495c24a0bcfa7dd6085cc4280d7cf8ef1043339820caf5b87c7d4c539e",
      "transactionType": "CALL",
      "contractName": null,
      "contractAddress": "0xa6c8d1c55951e8ac44a0eaa959be5fd21cc07531",
      "function": "transfer(address,uint256)",
      "arguments": [
        "0xd33B56ceaa115020b20dbE29db6b17eDd3795585",
        "148927258410239681153"
      ],
      "transaction": {
        "from": "0xf39fd6e51aad88f6f4ce6ab8827279cfffb92266",
        "to": "0xa6c8d1c55951e8ac44a0eaa959be5fd21cc07531",
        "gas": "0x14840",
        "value": "0x0",
        "input": "0xa9059cbb000000000000000000000000d33b56ceaa115020b20dbe29db6b17edd379558500000000000000000000000000000000000000000000000812c7e87943246281",
        "nonce": "0x1f2f",
        "chainId": "0xaa36a7",
        "accessList": null,
        "type": null
      },
      "additionalContracts": [],
      "isFixedGasLimit": false
    }
  ],
  "receipts": [
    {
      "status": "0x1",
      "cumulativeGasUsed": "0xe072",
      "logs": [
        {
          "address": "0xa6c8d1c55951e8ac44a0eaa959be5fd21cc07531",
          "topics": [
            "0xddf252ad1be2c89b69c2b068fc378daa952ba7f163c4a11628f55a4df523b3ef",
            "0x000000000000000000000000f39fd6e51aad88f6f4ce6ab8827279cfffb92266",
            "0x000000000000000000000000d33b56ceaa115020b20dbe29db6b17edd3795585"
          ],
          "data": "0x00000000000000000000000000000000000000000000000812c7e87943246281",
          "blockHash": "0xefe1ece38a092fb0b1b6633b0971c639ef42b11514af683ed418196fed080bea",
          "blockNumber": "0x5b62c6",
          "blockTimestamp": "0x6654bddc",
          "transactionHash": "0x572859495c24a0bcfa7dd6085cc4280d7cf8ef1043339820caf5b87c7d4c539e",
          "transactionIndex": "0x0",
          "logIndex": "0x0",
          "removed": false
        }
      ],
      "logsBloom": "0x00000000000000000000000000000000800000000000040000000000000000000000000000000000000000000000000000000000000000000000000000000000000000000000000000000008000000000000000000000000000000000000000000000000000000000000000100000000000000000000000000000010000000000000000000000000000000000000000000000000000000000000000000000000000000000000000000000000000000000000100000000000000000000000000000000002000000200000000000000000000000002000000000000000000000000020000000000000000000000000200000800000000000000000000000000000",
      "type": "0x2",
      "transactionHash": "0x572859495c24a0bcfa7dd6085cc4280d7cf8ef1043339820caf5b87c7d4c539e",
      "transactionIndex": "0x0",
      "blockHash": "0xefe1ece38a092fb0b1b6633b0971c639ef42b11514af683ed418196fed080bea",
      "blockNumber": "0x5b62c6",
      "gasUsed": "0xe072",
      "effectiveGasPrice": "0x2591cfe13",
      "from": "0xf39fd6e51aad88f6f4ce6ab8827279cfffb92266",
      "to": "0xa6c8d1c55951e8ac44a0eaa959be5fd21cc07531",
      "contractAddress": null,
      "root": "0x0000000000000000000000000000000000000000000000000000000000000000"
    }
  ],
  "libraries": [],
  "pending": [],
  "returns": {},
  "timestamp": 1716829670,
  "chain": 11155111,
  "commit": "c6ee0af"
}